:1000000012C0189518951895189561C199C1189541
:100010001895189518951895189518951895189578
:100020001895189518958FED8DBFC0ECE8EB4E2E06
:10003000DD275D2EEEE7F0E0A0E6B0E088278D93A7
:100040003197E9F7E9D16624899A8898909A85E0F2
:1000500083BF80E080BF80E08FBD87E08EBD789455
:1000600089B7826089BF89B7806889BFC1D1E4EC54
:10007000F6E0B8D1919A80E08093520080E090E061
:1000800090934D0080934C0000E010E020E030E0C1
:10009000A4E60D931D932D933C9300E010E020E027
:1000A00030E0A8E60D931D932D933C934BE450E074
:1000B00060E070E0A4E60D911D912D913C917ED2FF
:1000C00014F009F002C00000F1CFEF93FF93E8E2D3
:1000D000FCE450D2FF91EF91919889B78D7F89BF51
:1000E00089B78F7789BFA8E60D911D912D913C911D
:1000F00040E050E061E070E0F7D1A0E60D931D9381
:100100002D933D93A0E60D911D912D913C91ACE472
:100110004D915C91662777274CD2ACE60D931D93E9
:100120002D933D9365D18FE711E071D1A0E7ECE607
:10013000F0E05AD240E452E46FE070E0ACE60D919A
:100140001D912D913C913AD20CF001C002C045C0E6
:100150002DC040EA56E861E070E0ACE60D911D91DB
:100160002D913C912BD20CF001C002C04DC01EC09D
:1001700040E157E260E070E0ACE60D911D912D91F9
:100180003C911CD20CF001C002C055C00FC048EE1B
:1001900053E060E070E0ACE60D911D912D913C9133
:1001A0000DD214F009F001C001C05CC007E00F934C
:1001B000A0E782D2482F0F91041BA1E80C938FE790
:1001C000A1E81C9124D1A0EAB0E0ECE6F0E00CD26A
:1001D00001D1EAECF6E006D15FC0E0E7F0E001E033
:1001E000A8E762D282E0E0E7F0E004E00A93ACE73F
:1001F00054D2A8E7F1D0EEECF6E0F4D0ACE7ECD0C6
:10020000E0EDF6E0EFD048C0E0E7F0E003E0A8E77B
:100210004BD284E0E0E7F0E002E00A93ACE73DD2A5
:10022000A8E7DAD0EEECF6E0DDD0ACE7D5D0E6ED2D
:10023000F6E0D8D031C0E0E7F0E002E0A8E734D241
:1002400083E0E0E7F0E003E00A93ACE726D2A8E71A
:10025000C3D0EEECF6E0C6D0ACE7BED0E6EDF6E0FB
:10026000C1D01AC0E0E7F0E001E0A8E71DD282E0CB
:10027000E0E7F0E004E00A93ACE70FD2ECEDF6E043
:10028000B1D0A8E7A9D0EEECF6E0ACD0ACE7A4D0B2
:10029000E6EDF6E0A7D000C08FEB11E0B8D0002764
:1002A000A0E38C9180FB0EF401E040E0041709F01C
:1002B00005C0A0E791D0EAECF6E094D08CE0F4D051
:1002C00089B7826089BF89B7806889BFD3CE0F9212
:1002D0001F922F923F924F925F927F92AF92BF9266
:1002E0000F931F932F933F934F935F936F937F933E
:1002F0008F939F93AF93BF93CF93DF93EF93FF932E
:100300008FB78F93A8E657D08F918FBFFF91EF9152
:10031000DF91CF91BF91AF919F918F917F916F911D
:100320005F914F913F912F911F910F91BF90AF908F
:100330007F905F904F903F902F901F900F90189557
:100340000F921F922F923F924F925F927F92AF92A5
:10035000BF920F931F932F933F934F935F936F938E
:100360007F938F939F93AF93BF93CF93DF93EF933D
:10037000FF938FB78F93A4E61ED08F918FBFFF910D
:10038000EF91DF91CF91BF91AF919F918F917F912D
:100390006F915F914F913F912F911F910F91BF905E
:1003A000AF907F905F904F903F902F901F900F9055
:1003B0001895F894FFCF0D911D912D913C9181E0FE
:1003C000080F8827181F281F381F3C932E931E9351
:1003D0000E930895A0EAB0E08D91882311F05ED0CD
:1003E000FBCF0895E2D0802D11F058D0FBCF0895B7
:1003F00081E05AD00ED080E857C08FE7213039F025
:100400008FEB223021F08FE8233009F08FEC810F41
:100410004BC083E09927BAC08AEF90E0B7D0BC9A6E
:10042000BB9ABA9AB99AB89A8E9A969885E090E053
:10043000ADD0C098C498C398C29AC19AC09AEF939D
:10044000FF93E0EFF1E096D0FF91EF91C0989BD041
:10045000C09AEF93FF93E0EFF1E08CD0FF91EF9122
:10046000C09891D0C09AEF93FF93E0EFF1E082D073
:10047000FF91EF91C09887D0C198C09AEF93FF93F6
:10048000E0EFF1E077D0FF91EF91C0987CD088E267
:100490000BD08EE009D086E007D00895969A829519
:1004A00005D004D070D008959698F9CF859510F4B2
:1004B000C19A01C0C198859510F4C29A01C0C29832
:1004C000859510F4C39A01C0C398859510F4C49A19
:1004D00001C0C498C09AEF93FF93E0EFF1E04AD0D7
:1004E000FF91EF91C098089522D006D000FC01D072
:1004F000089528D030D00895842F952FA62FB72F98
:100500004427552766277727F1E2889409C020F40D
:10051000480F591F6A1F7B1F76956795579547951A
:100520003795279517950795FA9589F7089500242B
:10053000E89477FF02C006D0689400F809D010F85C
:100540000124089512D04F5F5F4F6F4F7F4F089582
:10055000E89437FF089500951095209530950F5F2A
:100560001F4F2F4F3F4F68940895409550956095C9
:10057000709508953197F1F70895689462F8089599
:10058000E89462F8089581E090E000C0EF93FF9353
:10059000EE27E82BE92B31F0E8E8F3E13197F1F7AA
:1005A0000197D1F7FF91EF910895C89531960020FA
:1005B0000895040F151F261F371F089504171507E8
:1005C000260737070895000F111F221F331F0895B4
:1005D00000951095209530950F5F1F4F2F4F3F4F7F
:1005E0000895019110810EC00191119121913081E6
:1005F0000BC00191108117FF05C03FEF2FEF04C022
:10060000008111272227332737FF03C0E1DF8DE266
:100610008D93CF93DF93CF92DF92EF92AA24BB24E6
:10062000CC24DD24EE2440E2CAE0DD2755E093E34C
:100630008881890F87FD9F7083FD907F891B899337
:100640005A95A9F7C0DFAA1CBB1CCC1CDD1CEE1CF4
:100650004A9551F7E894EFE0FF2782910ED0EB30F6
:10066000E0F71EF068948A2D0CD088278D93EF90C8
:10067000DF90CF90DF91CF910895982F829501D090
:10068000892F8F70805D26F0803309F40895689477
:100690008D93089588278D930895099191919923B9
:1006A00051F08A95D9F7319781918D930A9519F078
:1006B0008823D1F70895EECF8FEF83959D919923ED
:1006C000E1F7089553746172740020487A002E0097
:0E06D000204D487A0000204B487A00002000A0
:00000001FF