:080000000C943D000C9400007B
:100008000C9400000C9400000C9400000C94130154
:100018000C9400000C9400000C9407010C94000050
:100028000C9400000C9400000C9400000C94000048
:100038000C9400000C9400000C9400000C94000038
:100048000C9400000C9400000C94000020487A00E6
:1000580080C001002D4E414E00494E46000004006C
:100068006001540002007C015800010080015A0020
:100078000000F894EE27ECBBF1E0FBBFEBBFE5BF57
:100088008DE0A2E0BB27ED938A95E9F780E094E044
:10009800A0E6ED930197E9F7E6E6F0E08591959102
:1000A800009761F0A591B59105901590BF01F001F9
:1000B80005900D920197E1F7FB01F0CFEFE5EDBF59
:1000C800E4E0EEBFC0E6D1E00C94D800AA932497F0
:1000D8000E946A0210E00E94EE0161F4E12F1F5FA6
:1000E800A985BA85F0E0AE0FBF1FE0E3EC930E944C
:1000F800F50156C00E94EE0181F10E94FC010E94A8
:100108005802EC83FD836E837F83E12F1F5F0E947B
:100118000502AC81BD818E819F81AA30E0E0BE07D7
:10012800E0E08E07E0E09E0738F00E940C02E95CF0
:10013800FF4F6F4F7F4F06C00E940C02E05DFF4FDC
:100148006F4F7F4FD001EC930E94FC010E94330255
:10015800EB87FC876D877E87CDCF0E94F50100E095
:10016800E12FE1503E2F0317D8F4A985BA85EE2771
:10017800A00FBE1F2C91E02F0E940502A985BA8509
:10018800EE27A30FBE1FEC91D001EC93E32FA985B6
:10019800BA85F0E0EA0FFB1F20830F5F3150E3CFF1
:1001A8000E946F022F960895A0E1E6D0E0E0EFBD2F
:1001B800E4E4EEBDE9B7E460E9BFE9B7E062E9BFAE
:1001C8008E987894A7D0E0E0EA93A0E096D0E091EA
:1001D8006401F091650160916601709167010E9468
:1001E8006102E8E6F1E0FA93EA93AAE06FDFA8E695
:1001F800B1E0B1D0A0E6B1E0AED0A4E6B0E00E9494
:100208001F02E0CFFFCFEA93E0E0E0936401E093C0
:100218006501E0936601E0936701E99118950A92F8
:100228001A926A937A938A939A93AA93BA93EA93BF
:10023800FA93EFB7EA932897E6B5AE2FE7B5FE2F06
:10024800E0E0EA2B66277727EC83FD836E837F83C4
:10025800A0917801B091790180917A0190917B0108
:100268000E940C020E9429020E945C02ADE2B1E3E6
:1002780081E090E00E943302E0936401F09365010D
:1002880060936601709367010E940C02E093780105
:10029800F093790160937A0170937B012896E99134
:1002A800EFBFF991E991B991A991999189917991C2
:1002B8006991199009901895AA93EBB3EF70AE2F36
:1002C800E881E07FEA2BEBBB81E28A95F1F7DA9AC5
:1002D80081E28A95F1F7DA9881E28A95F1F778C098
:1002E800AA93A881E9DFE881E295E883A881E4DFA1
:1002F8008AEF90E00197F1F76BC0AA93E881F0E0EC
:10030800E458FE4FE081A981AE0FEADF59804880AA
:1003180022960895A2E00E941102ACE0E1DFA1E07C
:100328000E941102E0E04E2E5E2E0895AA93A88145
:10033800AA3011F0571448F0E0E0EA934394A42D52
:10034800DCDFA881AA3009F443C05394D89AA88165
:10035800C7DFD8983DC0BA93AA931A93A981BA81E6
:10036800ED91A983BA831E2FE03019F0A12FDEDFAB
:10037800F5CF188123960895AA93EAB3E06FEABBF4
:10038800D29AD09AD19ADA98D898D9987880E88170
:10039800E058E0937E01E881E054E0937F01A4E116
:1003A800B0E00E941F020E9417020E9417020E94DA
:1003B8001702A0E281DF84EF91E00197F1F7A8E24C
:1003C8008FDFA4E08DDFA5E88BDFA6E089DFA2DF61
:1003D80021960895EB85FC856D857E850E946602D1
:1003E8000895A985BA85EE27A10FBE1FEC9308953D
:1003F800E885F0E0AB85BC858D859E850E942E0240
:100408000895A985BA85F0E0EA0FFB1F0F0108954A
:10041800EC81FD816E817F8108950E947401A3E0C3
:10042800B0E00C941F02A0E30E94600184EF91E009
:100438000197F1F70895109639F0A89588E893E1A7
:100448000197F1F71197C9F70895EA1BFB0B680BA1
:10045800790B08956F2F660F660B762F08953F93DB
:100468004F935F93002411244427552730E2AA0FA5
:10047800BB1F881F991F001C111C441F551F0E1AF3
:100488001F0A460B570B28F40E0E1F1E461F571F38
:1004980001C0A1603A9559F7FD01BC01D001CA011C
:1004A8005F914F913F910895DADFFD01BC010895F6
:1004B800E883F9836A837B8308957A936A93FA932E
:1004C800EA93089530976040704008953A932A93CC
:1004D8001A930A9308953B812A8119810881089506
:00000001FF
